:1000000072C000009EC000009CC000009AC00000AA
:1000100098C0000096C0000094C0000092C000008C
:1000200090C000008EC000008CC000008AC000009C
:1000300088C0000086C0000084C0000082C00000AC
:1000400080C000007EC000007CC000007AC00000BC
:1000500078C0000076C0000074C000008DC20000AF
:1000600070C000004EC3000023C300006AC000003F
:1000700068C0000066C0000064C0000062C00000EC
:1000800060C000005EC000005CC000005AC00000FC
:1000900058C0000056C0000054C0000052C000000C
:1000A00050C000004EC000004CC000004AC000001C
:1000B00048C0000046C0000044C0000042C000002C
:1000C00040C000003EC000003CC000003AC000003C
:1000D00038C0000036C00000C2C2000097C2000055
:1000E00030C00000AA0311241FBECFEFD1E2DEBF53
:1000F000CDBF00E00CBF12E0A0E0B2E0EEE1F9E01D
:1001000000E00BBF02C007900D92A431B107D9F7F0
:1001100023E0A4E1B2E001C01D92A735B207E1F7E8
:1001200010E0C3E7D0E000E005C021970109802F6F
:10013000FE01E7D3C237D10780E00807B1F75DD3EE
:10014000ECC35ECFFC01A089B18982E08C93A485C9
:10015000B5851C92A685B78580E18C93108EA48905
:10016000B58986E08C93A289B3898C9180618C9348
:10017000A289B3898C9188608C93A289B3898C9170
:1001800080688C930288F389E02D80818F7D808345
:100190000895CF93DF93FC01A089B1898C91A68942
:1001A000B78982FD2BC0C289D389888182FF07C0AD
:1001B000818D8E5F8F7328812695217003C0818D7C
:1001C0008F5F8F739C91328D3817C9F0388132FF61
:1001D0000DC0318DDF01A30FB11D5D962C93218DD4
:1001E000DF01A20FB11D5E969C9306C0218DDF0139
:1001F000A20FB11D5D969C93818F01C08C91DF9100
:10020000CF910895CF92DF92EF92FF920F931F93B9
:10021000CF93DF936C017A018B01C0E0D0E0CE1563
:10022000DF0581F0D8016D918D01D601ED91FC9132
:100230000190F081E02DC6011995892B11F02196CE
:10024000EECF7E01C701DF91CF911F910F91FF90FB
:10025000EF90DF90CF900895089580E090E00895AA
:10026000FC01538D448D252F30E0842F90E0821BBC
:10027000930B541710F0CF96089501970895FC0141
:10028000918D828D981721F1A289B3898C9182FF7B
:1002900013C0828DDF01A80FB11D5D962C91828D58
:1002A000DF01A80FB11D5E968C91928D9E5F9F73AA
:1002B000928F90E0922B0895828DDF01A80FB11DDF
:1002C0005D968C91928D9F5F9F73928F90E00895C1
:1002D0008FEF9FEF0895FC01918D828D9817D1F0DB
:1002E000A289B3898C9182FF0FC0828D228DDF019C
:1002F000A80FB11D5D968C9190E0982F8827E20F92
:10030000F11D268D822B0895828DE80FF11D858DBC
:1003100090E008958FEF9FEF0895FC01918D228D5D
:10032000892F90E0805C9F4F821B91098F739927E2
:100330000288F389E02D208122FF02C096958795DF
:1003400008958DE192E0E9DF21E0892B09F420E0B6
:10035000822F08958AEB92E0E0DF21E0892B09F4F7
:1003600020E0822F0895CF93DF93FC01A289B38907
:100370008C9182FF1CC0848DEF01C80FD11DC35A20
:10038000DF4F3881848DEF01C80FD11DC25ADF4F76
:100390002881848D90E002968F739927848F8C91A9
:1003A00030FF02C0816001C08E7F8C930DC0848DB0
:1003B000DF01A80FB11DA35ABF4F2C91848D90E08F
:1003C00001968F739927848FA689B7892C93A0896A
:1003D000B1898C9180648C93938D848D981306C021
:1003E0000288F389E02D80818F7D8083DF91CF911A
:1003F0000895EF92FF921F93CF93DF93EC019B8DB3
:100400008C8DEA89FB89981305C0A889B9898C91DC
:1004100085FD3BC07B01808182FF03C01B8D1E5F79
:1004200002C01B8D1F5F1F738C8D81130BC00FB615
:1004300007FCFACFE889F989808185FFF5CFCE01E5
:1004400092DFF2CFEA89FB89808182FF10C08B8D19
:10045000DE01A80FB11DA35ABF4F8F2D81708C9361
:100460008B8DDE01A80FB11DA25ABF4F06C08B8D28
:10047000DE01A80FB11DA35ABF4FEC921B8F8081E4
:100480008062808381E0888F12C0808182FF07C0F4
:10049000808170FF02C0816001C08E7F8083EE8901
:1004A000FF896083E889F98980818064808381E0A5
:1004B00090E0DF91CF911F91FF90EF900895CF933F
:1004C000DF93EC01888D8823C1F0EA89FB89808164
:1004D00085FD05C0A889B9898C9186FD0EC00FB62F
:1004E00007FCF5CF808185FFF2CFA889B9898C916F
:1004F00085FFEDCFCE0137DFE8CFDF91CF910895B3
:1005000080E090E0892B19F025DF811120C080E088
:1005100090E0892B41F080E090E0892B21F00E944F
:100520000000811117C080E090E0892B41F080E04D
:1005300090E0892B21F00E94000081110EC080E024
:1005400090E0892B79F0FDDE81110AC008950E94A8
:100550000000DDCF0E940000E6CF0E940000EFCF38
:100560000C940000089570E0DC01ED91FC9106848C
:10057000F785E02D1994CDD11F920F920FB60F92EF
:1005800011242F933F938F939F93AF93BF938091A9
:10059000190290911A02A0911B02B0911C02309195
:1005A000180223E0230F2D3720F40196A11DB11D61
:1005B00005C026E8230F0296A11DB11D2093180245
:1005C0008093190290931A02A0931B02B0931C020D
:1005D0008091140290911502A0911602B091170219
:1005E0000196A11DB11D8093140290931502A09352
:1005F0001602B0931702BF91AF919F918F913F91D7
:100600002F910F900FBE0F901F9018951F920F9271
:100610000FB60F9211240BB60F922F933F934F9367
:100620005F936F937F938F939F93AF93BF93EF935A
:10063000FF938DE192E097DEFF91EF91BF91AF9133
:100640009F918F917F916F915F914F913F912F91EA
:100650000F900BBE0F900FBE0F901F9018951F921A
:100660000F920FB60F9211240BB60F922F933F9358
:100670004F935F936F937F938F939F93AF93BF93AA
:10068000EF93FF938DE192E084DDFF91EF91BF91B5
:10069000AF919F918F917F916F915F914F913F911A
:1006A0002F910F900BBE0F900FBE0F901F901895BB
:1006B0001F920F920FB60F9211240BB60F922F9329
:1006C0003F934F935F936F937F938F939F93AF93DA
:1006D000BF93EF93FF938AEB92E045DEFF91EF919A
:1006E000BF91AF919F918F917F916F915F914F914A
:1006F0003F912F910F900BBE0F900FBE0F901F9048
:1007000018951F920F920FB60F9211240BB60F92ED
:100710002F933F934F935F936F937F938F939F9309
:10072000AF93BF93EF93FF938AEB92E032DDFF919B
:10073000EF91BF91AF919F918F917F916F915F9159
:100740004F913F912F910F900BBE0F900FBE0F90C6
:100750001F901895EDE1F2E01382128248EE53E00B
:1007600060E070E0448355836683778384E092E0A1
:100770009183808325E331E03587248724E331E0CA
:100780003787268720E331E0318B208B21E331E06E
:10079000338B228B22E331E0358B248B26E331E04F
:1007A000378B268B118E128E138E148EEAEBF2E0AD
:1007B0001382128244835583668377839183808377
:1007C00085EC90E09587848784EC90E09787868716
:1007D00080EC90E0918B808B81EC90E0938B828B0E
:1007E00082EC90E0958B848B86EC90E0978B868BE7
:1007F000118E128E138E148E0895789484B58260B3
:1008000084BD84B5816084BD85B5826085BD85B5B4
:10081000816085BD80916E00816080936E00109232
:1008200081008091810082608093810080918100AD
:10083000816080938100809180008160809380003E
:100840008091B10084608093B1008091B00081609C
:100850008093B0008091910082608093910080919C
:1008600091008160809391008091900081608093DD
:1008700090008091A10082608093A1008091A100EE
:1008800081608093A1008091A00081608093A0008E
:1008900080912101826080932101809121018160FA
:1008A00080932101809120018160809320018091BB
:1008B0007A00846080937A0080917A0082608093CD
:1008C0007A0080917A00816080937A0080917A002A
:1008D000806880937A001092C1008AEB92E032DC4B
:1008E0008DE192E02FDC8DE192E017DD892B39F06C
:1008F0008DE192E0C4DC682F8AEB92E034DE00DE0A
:10090000F2CFEE0FFF1F881F8BBF0790F691E02DEF
:0E091000199481E090E0F89400C0F894FFCFB5
:10091E0000000000B302020130015F028D013F01B1
:04092E006B01F9015F
:00000001FF
